{"abi":[{"type":"constructor","inputs":[{"name":"_addressProvider","type":"address","internalType":"address"}],"stateMutability":"nonpayable"},{"type":"function","name":"ADDRESSES_PROVIDER","inputs":[],"outputs":[{"name":"","type":"address","internalType":"contract IPoolAddressesProvider"}],"stateMutability":"view"},{"type":"function","name":"POOL","inputs":[],"outputs":[{"name":"","type":"address","internalType":"contract IPool"}],"stateMutability":"view"},{"type":"function","name":"executeOperation","inputs":[{"name":"asset","type":"address","internalType":"address"},{"name":"amount","type":"uint256","internalType":"uint256"},{"name":"premium","type":"uint256","internalType":"uint256"},{"name":"initiator","type":"address","internalType":"address"},{"name":"params","type":"bytes","internalType":"bytes"}],"outputs":[{"name":"","type":"bool","internalType":"bool"}],"stateMutability":"nonpayable"},{"type":"function","name":"owner","inputs":[],"outputs":[{"name":"","type":"address","internalType":"address"}],"stateMutability":"view"},{"type":"function","name":"solicitarPrestamo","inputs":[{"name":"token","type":"address","internalType":"address"},{"name":"cantidad","type":"uint256","internalType":"uint256"}],"outputs":[],"stateMutability":"nonpayable"}],"bytecode":{"object":"0x60c060405234801561001057600080fd5b50604051610a44380380610a44833981810160405281019061003291906101b3565b808073ffffffffffffffffffffffffffffffffffffffff1660808173ffffffffffffffffffffffffffffffffffffffff16815250508073ffffffffffffffffffffffffffffffffffffffff1663026b1d5f6040518163ffffffff1660e01b8152600401602060405180830381865afa1580156100b2573d6000803e3d6000fd5b505050506040513d601f19601f820116820180604052508101906100d691906101b3565b73ffffffffffffffffffffffffffffffffffffffff1660a08173ffffffffffffffffffffffffffffffffffffffff168152505050336000806101000a81548173ffffffffffffffffffffffffffffffffffffffff021916908373ffffffffffffffffffffffffffffffffffffffff160217905550506101e0565b600080fd5b600073ffffffffffffffffffffffffffffffffffffffff82169050919050565b600061018082610155565b9050919050565b61019081610175565b811461019b57600080fd5b50565b6000815190506101ad81610187565b92915050565b6000602082840312156101c9576101c8610150565b5b60006101d78482850161019e565b91505092915050565b60805160a0516108316102136000396000818161011f0152818161020a015261029c015260006101b901526108316000f3fe608060405234801561001057600080fd5b50600436106100575760003560e01c80630466f6ee1461005c5780630542975c146100785780631b11d0ff146100965780637535d246146100c65780638da5cb5b146100e4575b600080fd5b61007660048036038101906100719190610380565b610102565b005b6100806101b7565b60405161008d919061041f565b60405180910390f35b6100b060048036038101906100ab919061049f565b6101db565b6040516100bd9190610554565b60405180910390f35b6100ce61029a565b6040516100db9190610590565b60405180910390f35b6100ec6102be565b6040516100f991906105ba565b60405180910390f35b6000309050600060405180602001604052806000815250905060007f000000000000000000000000000000000000000000000000000000000000000073ffffffffffffffffffffffffffffffffffffffff166342b0b77c84878786866040518663ffffffff1660e01b815260040161017e95949392919061069a565b600060405180830381600087803b15801561019857600080fd5b505af11580156101ac573d6000803e3d6000fd5b505050505050505050565b7f000000000000000000000000000000000000000000000000000000000000000081565b60008085876101ea9190610723565b90508773ffffffffffffffffffffffffffffffffffffffff1663095ea7b37f0000000000000000000000000000000000000000000000000000000000000000836040518363ffffffff1660e01b8152600401610247929190610779565b6020604051808303816000875af1158015610266573d6000803e3d6000fd5b505050506040513d601f19601f8201168201806040525081019061028a91906107ce565b5060019150509695505050505050565b7f000000000000000000000000000000000000000000000000000000000000000081565b60008054906101000a900473ffffffffffffffffffffffffffffffffffffffff1681565b600080fd5b600080fd5b600073ffffffffffffffffffffffffffffffffffffffff82169050919050565b6000610317826102ec565b9050919050565b6103278161030c565b811461033257600080fd5b50565b6000813590506103448161031e565b92915050565b6000819050919050565b61035d8161034a565b811461036857600080fd5b50565b60008135905061037a81610354565b92915050565b60008060408385031215610397576103966102e2565b5b60006103a585828601610335565b92505060206103b68582860161036b565b9150509250929050565b6000819050919050565b60006103e56103e06103db846102ec565b6103c0565b6102ec565b9050919050565b60006103f7826103ca565b9050919050565b6000610409826103ec565b9050919050565b610419816103fe565b82525050565b60006020820190506104346000830184610410565b92915050565b600080fd5b600080fd5b600080fd5b60008083601f84011261045f5761045e61043a565b5b8235905067ffffffffffffffff81111561047c5761047b61043f565b5b60208301915083600182028301111561049857610497610444565b5b9250929050565b60008060008060008060a087890312156104bc576104bb6102e2565b5b60006104ca89828a01610335565b96505060206104db89828a0161036b565b95505060406104ec89828a0161036b565b94505060606104fd89828a01610335565b935050608087013567ffffffffffffffff81111561051e5761051d6102e7565b5b61052a89828a01610449565b92509250509295509295509295565b60008115159050919050565b61054e81610539565b82525050565b60006020820190506105696000830184610545565b92915050565b600061057a826103ec565b9050919050565b61058a8161056f565b82525050565b60006020820190506105a56000830184610581565b92915050565b6105b48161030c565b82525050565b60006020820190506105cf60008301846105ab565b92915050565b6105de8161034a565b82525050565b600081519050919050565b600082825260208201905092915050565b60005b8381101561061e578082015181840152602081019050610603565b8381111561062d576000848401525b50505050565b6000601f19601f8301169050919050565b600061064f826105e4565b61065981856105ef565b9350610669818560208601610600565b61067281610633565b840191505092915050565b600061ffff82169050919050565b6106948161067d565b82525050565b600060a0820190506106af60008301886105ab565b6106bc60208301876105ab565b6106c960408301866105d5565b81810360608301526106db8185610644565b90506106ea608083018461068b565b9695505050505050565b7f4e487b7100000000000000000000000000000000000000000000000000000000600052601160045260246000fd5b600061072e8261034a565b91506107398361034a565b9250827fffffffffffffffffffffffffffffffffffffffffffffffffffffffffffffffff0382111561076e5761076d6106f4565b5b828201905092915050565b600060408201905061078e60008301856105ab565b61079b60208301846105d5565b9392505050565b6107ab81610539565b81146107b657600080fd5b50565b6000815190506107c8816107a2565b92915050565b6000602082840312156107e4576107e36102e2565b5b60006107f2848285016107b9565b9150509291505056fea264697066735822122094c0d5c897bf2988b9347c932fc5a6fa2d868f2ee36aff76df2eb9068ce429ea64736f6c634300080a0033","linkReferences":{}},"methodIdentifiers":{"ADDRESSES_PROVIDER()":"0542975c","POOL()":"7535d246","executeOperation(address,uint256,uint256,address,bytes)":"1b11d0ff","owner()":"8da5cb5b","solicitarPrestamo(address,uint256)":"0466f6ee"},"id":6}