{"abi":[{"type":"constructor","inputs":[{"name":"_addressProvider","type":"address","internalType":"address"}],"stateMutability":"nonpayable"},{"type":"function","name":"ADDRESSES_PROVIDER","inputs":[],"outputs":[{"name":"","type":"address","internalType":"contract IPoolAddressesProvider"}],"stateMutability":"view"},{"type":"function","name":"POOL","inputs":[],"outputs":[{"name":"","type":"address","internalType":"contract IPool"}],"stateMutability":"view"},{"type":"function","name":"executeOperation","inputs":[{"name":"asset","type":"address","internalType":"address"},{"name":"amount","type":"uint256","internalType":"uint256"},{"name":"premium","type":"uint256","internalType":"uint256"},{"name":"initiator","type":"address","internalType":"address"},{"name":"params","type":"bytes","internalType":"bytes"}],"outputs":[{"name":"","type":"bool","internalType":"bool"}],"stateMutability":"nonpayable"},{"type":"function","name":"owner","inputs":[],"outputs":[{"name":"","type":"address","internalType":"address"}],"stateMutability":"view"},{"type":"function","name":"solicitarPrestamo","inputs":[{"name":"token","type":"address","internalType":"address"},{"name":"cantidad","type":"uint256","internalType":"uint256"}],"outputs":[],"stateMutability":"nonpayable"}],"bytecode":{"object":"0x60c060405234801561000f575f5ffd5b506040516109b03803806109b0833981810160405281019061003191906101aa565b808073ffffffffffffffffffffffffffffffffffffffff1660808173ffffffffffffffffffffffffffffffffffffffff16815250508073ffffffffffffffffffffffffffffffffffffffff1663026b1d5f6040518163ffffffff1660e01b8152600401602060405180830381865afa1580156100af573d5f5f3e3d5ffd5b505050506040513d601f19601f820116820180604052508101906100d391906101aa565b73ffffffffffffffffffffffffffffffffffffffff1660a08173ffffffffffffffffffffffffffffffffffffffff168152505050335f5f6101000a81548173ffffffffffffffffffffffffffffffffffffffff021916908373ffffffffffffffffffffffffffffffffffffffff160217905550506101d5565b5f5ffd5b5f73ffffffffffffffffffffffffffffffffffffffff82169050919050565b5f61017982610150565b9050919050565b6101898161016f565b8114610193575f5ffd5b50565b5f815190506101a481610180565b92915050565b5f602082840312156101bf576101be61014c565b5b5f6101cc84828501610196565b91505092915050565b60805160a0516107ac6102045f395f818161011b01528181610200015261028f01525f6101b001526107ac5ff3fe608060405234801561000f575f5ffd5b5060043610610055575f3560e01c80630466f6ee146100595780630542975c146100755780631b11d0ff146100935780637535d246146100c35780638da5cb5b146100e1575b5f5ffd5b610073600480360381019061006e919061036a565b6100ff565b005b61007d6101ae565b60405161008a9190610403565b60405180910390f35b6100ad60048036038101906100a8919061047d565b6101d2565b6040516100ba919061052d565b60405180910390f35b6100cb61028d565b6040516100d89190610566565b60405180910390f35b6100e96102b1565b6040516100f6919061058e565b60405180910390f35b5f3090505f60405180602001604052805f81525090505f5f90507f000000000000000000000000000000000000000000000000000000000000000073ffffffffffffffffffffffffffffffffffffffff166342b0b77c84878786866040518663ffffffff1660e01b815260040161017a959493929190610642565b5f604051808303815f87803b158015610191575f5ffd5b505af11580156101a3573d5f5f3e3d5ffd5b505050505050505050565b7f000000000000000000000000000000000000000000000000000000000000000081565b5f5f85876101e091906106c7565b90508773ffffffffffffffffffffffffffffffffffffffff1663095ea7b37f0000000000000000000000000000000000000000000000000000000000000000836040518363ffffffff1660e01b815260040161023d9291906106fa565b6020604051808303815f875af1158015610259573d5f5f3e3d5ffd5b505050506040513d601f19601f8201168201806040525081019061027d919061074b565b5060019150509695505050505050565b7f000000000000000000000000000000000000000000000000000000000000000081565b5f5f9054906101000a900473ffffffffffffffffffffffffffffffffffffffff1681565b5f5ffd5b5f5ffd5b5f73ffffffffffffffffffffffffffffffffffffffff82169050919050565b5f610306826102dd565b9050919050565b610316816102fc565b8114610320575f5ffd5b50565b5f813590506103318161030d565b92915050565b5f819050919050565b61034981610337565b8114610353575f5ffd5b50565b5f8135905061036481610340565b92915050565b5f5f604083850312156103805761037f6102d5565b5b5f61038d85828601610323565b925050602061039e85828601610356565b9150509250929050565b5f819050919050565b5f6103cb6103c66103c1846102dd565b6103a8565b6102dd565b9050919050565b5f6103dc826103b1565b9050919050565b5f6103ed826103d2565b9050919050565b6103fd816103e3565b82525050565b5f6020820190506104165f8301846103f4565b92915050565b5f5ffd5b5f5ffd5b5f5ffd5b5f5f83601f84011261043d5761043c61041c565b5b8235905067ffffffffffffffff81111561045a57610459610420565b5b60208301915083600182028301111561047657610475610424565b5b9250929050565b5f5f5f5f5f5f60a08789031215610497576104966102d5565b5b5f6104a489828a01610323565b96505060206104b589828a01610356565b95505060406104c689828a01610356565b94505060606104d789828a01610323565b935050608087013567ffffffffffffffff8111156104f8576104f76102d9565b5b61050489828a01610428565b92509250509295509295509295565b5f8115159050919050565b61052781610513565b82525050565b5f6020820190506105405f83018461051e565b92915050565b5f610550826103d2565b9050919050565b61056081610546565b82525050565b5f6020820190506105795f830184610557565b92915050565b610588816102fc565b82525050565b5f6020820190506105a15f83018461057f565b92915050565b6105b081610337565b82525050565b5f81519050919050565b5f82825260208201905092915050565b8281835e5f83830152505050565b5f601f19601f8301169050919050565b5f6105f8826105b6565b61060281856105c0565b93506106128185602086016105d0565b61061b816105de565b840191505092915050565b5f61ffff82169050919050565b61063c81610626565b82525050565b5f60a0820190506106555f83018861057f565b610662602083018761057f565b61066f60408301866105a7565b818103606083015261068181856105ee565b90506106906080830184610633565b9695505050505050565b7f4e487b71000000000000000000000000000000000000000000000000000000005f52601160045260245ffd5b5f6106d182610337565b91506106dc83610337565b92508282019050808211156106f4576106f361069a565b5b92915050565b5f60408201905061070d5f83018561057f565b61071a60208301846105a7565b9392505050565b61072a81610513565b8114610734575f5ffd5b50565b5f8151905061074581610721565b92915050565b5f602082840312156107605761075f6102d5565b5b5f61076d84828501610737565b9150509291505056fea26469706673582212208b749241944d1fbcdabb6a4a438a53689b1f2fb5d8ee6c1b7a6c3493eb6323c864736f6c63430008210033","linkReferences":{}},"methodIdentifiers":{"ADDRESSES_PROVIDER()":"0542975c","POOL()":"7535d246","executeOperation(address,uint256,uint256,address,bytes)":"1b11d0ff","owner()":"8da5cb5b","solicitarPrestamo(address,uint256)":"0466f6ee"},"id":25}