{"abi":[{"type":"constructor","inputs":[{"name":"_addressProvider","type":"address","internalType":"address"}],"stateMutability":"nonpayable"},{"type":"function","name":"ADDRESSES_PROVIDER","inputs":[],"outputs":[{"name":"","type":"address","internalType":"contract IPoolAddressesProvider"}],"stateMutability":"view"},{"type":"function","name":"POOL","inputs":[],"outputs":[{"name":"","type":"address","internalType":"contract IPool"}],"stateMutability":"view"},{"type":"function","name":"executeOperation","inputs":[{"name":"asset","type":"address","internalType":"address"},{"name":"amount","type":"uint256","internalType":"uint256"},{"name":"premium","type":"uint256","internalType":"uint256"},{"name":"initiator","type":"address","internalType":"address"},{"name":"params","type":"bytes","internalType":"bytes"}],"outputs":[{"name":"","type":"bool","internalType":"bool"}],"stateMutability":"nonpayable"},{"type":"function","name":"router","inputs":[],"outputs":[{"name":"","type":"address","internalType":"contract ISwapRouter"}],"stateMutability":"view"},{"type":"function","name":"solicitarPrestamo","inputs":[{"name":"cantidad","type":"uint256","internalType":"uint256"}],"outputs":[],"stateMutability":"nonpayable"}],"bytecode":{"object":"0x60e060405234801561000f575f5ffd5b50604051610f27380380610f27833981810160405281019061003191906101b3565b808073ffffffffffffffffffffffffffffffffffffffff1660808173ffffffffffffffffffffffffffffffffffffffff16815250508073ffffffffffffffffffffffffffffffffffffffff1663026b1d5f6040518163ffffffff1660e01b8152600401602060405180830381865afa1580156100af573d5f5f3e3d5ffd5b505050506040513d601f19601f820116820180604052508101906100d391906101b3565b73ffffffffffffffffffffffffffffffffffffffff1660a08173ffffffffffffffffffffffffffffffffffffffff16815250505073e592427a0aece92de3edee1f18e0157c0586156473ffffffffffffffffffffffffffffffffffffffff1660c08173ffffffffffffffffffffffffffffffffffffffff1681525050506101de565b5f5ffd5b5f73ffffffffffffffffffffffffffffffffffffffff82169050919050565b5f61018282610159565b9050919050565b61019281610178565b811461019c575f5ffd5b50565b5f815190506101ad81610189565b92915050565b5f602082840312156101c8576101c7610155565b5b5f6101d58482850161019f565b91505092915050565b60805160a05160c051610cf56102325f395f8181610165015281816101e601528181610371015281816103f201526106c101525f8181610569015281816105fa015261069d01525f6101010152610cf55ff3fe608060405234801561000f575f5ffd5b5060043610610055575f3560e01c80630542975c146100595780631b11d0ff146100775780635327c770146100a75780637535d246146100c3578063f887ea40146100e1575b5f5ffd5b6100616100ff565b60405161006e919061075d565b60405180910390f35b610091600480360381019061008c919061084d565b610123565b60405161009e91906108fd565b60405180910390f35b6100c160048036038101906100bc9190610916565b6105f8565b005b6100cb61069b565b6040516100d89190610961565b60405180910390f35b6100e96106bf565b6040516100f6919061099a565b60405180910390f35b7f000000000000000000000000000000000000000000000000000000000000000081565b5f5f858761013191906109e0565b9050736b175474e89094c44da98b954eedeac495271d0f73ffffffffffffffffffffffffffffffffffffffff1663095ea7b37f0000000000000000000000000000000000000000000000000000000000000000896040518363ffffffff1660e01b81526004016101a2929190610a31565b6020604051808303815f875af11580156101be573d5f5f3e3d5ffd5b505050506040513d601f19601f820116820180604052508101906101e29190610a82565b505f7f000000000000000000000000000000000000000000000000000000000000000073ffffffffffffffffffffffffffffffffffffffff1663414bf389604051806101000160405280736b175474e89094c44da98b954eedeac495271d0f73ffffffffffffffffffffffffffffffffffffffff16815260200173c02aaa39b223fe8d0a0e5c4f27ead9083c756cc273ffffffffffffffffffffffffffffffffffffffff168152602001610bb862ffffff1681526020013073ffffffffffffffffffffffffffffffffffffffff1681526020014281526020018b81526020015f81526020015f73ffffffffffffffffffffffffffffffffffffffff168152506040518263ffffffff1660e01b81526004016102fd9190610b97565b6020604051808303815f875af1158015610319573d5f5f3e3d5ffd5b505050506040513d601f19601f8201168201806040525081019061033d9190610bc5565b905073c02aaa39b223fe8d0a0e5c4f27ead9083c756cc273ffffffffffffffffffffffffffffffffffffffff1663095ea7b37f0000000000000000000000000000000000000000000000000000000000000000836040518363ffffffff1660e01b81526004016103ae929190610a31565b6020604051808303815f875af11580156103ca573d5f5f3e3d5ffd5b505050506040513d601f19601f820116820180604052508101906103ee9190610a82565b505f7f000000000000000000000000000000000000000000000000000000000000000073ffffffffffffffffffffffffffffffffffffffff1663414bf38960405180610100016040528073c02aaa39b223fe8d0a0e5c4f27ead9083c756cc273ffffffffffffffffffffffffffffffffffffffff168152602001736b175474e89094c44da98b954eedeac495271d0f73ffffffffffffffffffffffffffffffffffffffff168152602001610bb862ffffff1681526020013073ffffffffffffffffffffffffffffffffffffffff1681526020014281526020018581526020015f81526020015f73ffffffffffffffffffffffffffffffffffffffff168152506040518263ffffffff1660e01b81526004016105099190610b97565b6020604051808303815f875af1158015610525573d5f5f3e3d5ffd5b505050506040513d601f19601f820116820180604052508101906105499190610bc5565b90508973ffffffffffffffffffffffffffffffffffffffff1663095ea7b37f0000000000000000000000000000000000000000000000000000000000000000856040518363ffffffff1660e01b81526004016105a6929190610a31565b6020604051808303815f875af11580156105c2573d5f5f3e3d5ffd5b505050506040513d601f19601f820116820180604052508101906105e69190610a82565b50600193505050509695505050505050565b7f000000000000000000000000000000000000000000000000000000000000000073ffffffffffffffffffffffffffffffffffffffff166342b0b77c30736b175474e89094c44da98b954eedeac495271d0f845f6040518563ffffffff1660e01b815260040161066b9493929190610c69565b5f604051808303815f87803b158015610682575f5ffd5b505af1158015610694573d5f5f3e3d5ffd5b5050505050565b7f000000000000000000000000000000000000000000000000000000000000000081565b7f000000000000000000000000000000000000000000000000000000000000000081565b5f73ffffffffffffffffffffffffffffffffffffffff82169050919050565b5f819050919050565b5f61072561072061071b846106e3565b610702565b6106e3565b9050919050565b5f6107368261070b565b9050919050565b5f6107478261072c565b9050919050565b6107578161073d565b82525050565b5f6020820190506107705f83018461074e565b92915050565b5f5ffd5b5f5ffd5b5f610788826106e3565b9050919050565b6107988161077e565b81146107a2575f5ffd5b50565b5f813590506107b38161078f565b92915050565b5f819050919050565b6107cb816107b9565b81146107d5575f5ffd5b50565b5f813590506107e6816107c2565b92915050565b5f5ffd5b5f5ffd5b5f5ffd5b5f5f83601f84011261080d5761080c6107ec565b5b8235905067ffffffffffffffff81111561082a576108296107f0565b5b602083019150836001820283011115610846576108456107f4565b5b9250929050565b5f5f5f5f5f5f60a0878903121561086757610866610776565b5b5f61087489828a016107a5565b965050602061088589828a016107d8565b955050604061089689828a016107d8565b94505060606108a789828a016107a5565b935050608087013567ffffffffffffffff8111156108c8576108c761077a565b5b6108d489828a016107f8565b92509250509295509295509295565b5f8115159050919050565b6108f7816108e3565b82525050565b5f6020820190506109105f8301846108ee565b92915050565b5f6020828403121561092b5761092a610776565b5b5f610938848285016107d8565b91505092915050565b5f61094b8261072c565b9050919050565b61095b81610941565b82525050565b5f6020820190506109745f830184610952565b92915050565b5f6109848261072c565b9050919050565b6109948161097a565b82525050565b5f6020820190506109ad5f83018461098b565b92915050565b7f4e487b71000000000000000000000000000000000000000000000000000000005f52601160045260245ffd5b5f6109ea826107b9565b91506109f5836107b9565b9250828201905080821115610a0d57610a0c6109b3565b5b92915050565b610a1c8161077e565b82525050565b610a2b816107b9565b82525050565b5f604082019050610a445f830185610a13565b610a516020830184610a22565b9392505050565b610a61816108e3565b8114610a6b575f5ffd5b50565b5f81519050610a7c81610a58565b92915050565b5f60208284031215610a9757610a96610776565b5b5f610aa484828501610a6e565b91505092915050565b610ab68161077e565b82525050565b5f62ffffff82169050919050565b610ad381610abc565b82525050565b610ae2816107b9565b82525050565b610af1816106e3565b82525050565b61010082015f820151610b0c5f850182610aad565b506020820151610b1f6020850182610aad565b506040820151610b326040850182610aca565b506060820151610b456060850182610aad565b506080820151610b586080850182610ad9565b5060a0820151610b6b60a0850182610ad9565b5060c0820151610b7e60c0850182610ad9565b5060e0820151610b9160e0850182610ae8565b50505050565b5f61010082019050610bab5f830184610af7565b92915050565b5f81519050610bbf816107c2565b92915050565b5f60208284031215610bda57610bd9610776565b5b5f610be784828501610bb1565b91505092915050565b5f82825260208201905092915050565b50565b5f610c0e5f83610bf0565b9150610c1982610c00565b5f82019050919050565b5f819050919050565b5f61ffff82169050919050565b5f610c53610c4e610c4984610c23565b610702565b610c2c565b9050919050565b610c6381610c39565b82525050565b5f60a082019050610c7c5f830187610a13565b610c896020830186610a13565b610c966040830185610a22565b8181036060830152610ca781610c03565b9050610cb66080830184610c5a565b9594505050505056fea2646970667358221220fdb3b134c4344abe240a566e1a15eae8eae6d2ed61051a0bb1021a0ccbd410f964736f6c63430008210033","linkReferences":{}},"methodIdentifiers":{"ADDRESSES_PROVIDER()":"0542975c","POOL()":"7535d246","executeOperation(address,uint256,uint256,address,bytes)":"1b11d0ff","router()":"f887ea40","solicitarPrestamo(uint256)":"5327c770"},"id":25}