{"abi":[{"type":"constructor","inputs":[{"name":"_addressProvider","type":"address","internalType":"address"}],"stateMutability":"nonpayable"},{"type":"function","name":"ADDRESSES_PROVIDER","inputs":[],"outputs":[{"name":"","type":"address","internalType":"contract IPoolAddressesProvider"}],"stateMutability":"view"},{"type":"function","name":"POOL","inputs":[],"outputs":[{"name":"","type":"address","internalType":"contract IPool"}],"stateMutability":"view"},{"type":"function","name":"executeOperation","inputs":[{"name":"asset","type":"address","internalType":"address"},{"name":"amount","type":"uint256","internalType":"uint256"},{"name":"premium","type":"uint256","internalType":"uint256"},{"name":"initiator","type":"address","internalType":"address"},{"name":"params","type":"bytes","internalType":"bytes"}],"outputs":[{"name":"","type":"bool","internalType":"bool"}],"stateMutability":"nonpayable"},{"type":"function","name":"router","inputs":[],"outputs":[{"name":"","type":"address","internalType":"contract ISwapRouter"}],"stateMutability":"view"},{"type":"function","name":"solicitarPrestamo","inputs":[{"name":"cantidad","type":"uint256","internalType":"uint256"}],"outputs":[],"stateMutability":"nonpayable"}],"bytecode":{"object":"0x60e060405234801561000f575f5ffd5b5060405161102e38038061102e833981810160405281019061003191906101b3565b808073ffffffffffffffffffffffffffffffffffffffff1660808173ffffffffffffffffffffffffffffffffffffffff16815250508073ffffffffffffffffffffffffffffffffffffffff1663026b1d5f6040518163ffffffff1660e01b8152600401602060405180830381865afa1580156100af573d5f5f3e3d5ffd5b505050506040513d601f19601f820116820180604052508101906100d391906101b3565b73ffffffffffffffffffffffffffffffffffffffff1660a08173ffffffffffffffffffffffffffffffffffffffff16815250505073e592427a0aece92de3edee1f18e0157c0586156473ffffffffffffffffffffffffffffffffffffffff1660c08173ffffffffffffffffffffffffffffffffffffffff1681525050506101de565b5f5ffd5b5f73ffffffffffffffffffffffffffffffffffffffff82169050919050565b5f61018282610159565b9050919050565b61019281610178565b811461019c575f5ffd5b50565b5f815190506101ad81610189565b92915050565b5f602082840312156101c8576101c7610155565b5b5f6101d58482850161019f565b91505092915050565b60805160a05160c051610dfc6102325f395f8181610165015281816101e601528181610371015281816103f2015261070401525f81816105ac0152818161063d01526106e001525f6101010152610dfc5ff3fe608060405234801561000f575f5ffd5b5060043610610055575f3560e01c80630542975c146100595780631b11d0ff146100775780635327c770146100a75780637535d246146100c3578063f887ea40146100e1575b5f5ffd5b6100616100ff565b60405161006e91906107a0565b60405180910390f35b610091600480360381019061008c9190610890565b610123565b60405161009e9190610940565b60405180910390f35b6100c160048036038101906100bc9190610959565b61063b565b005b6100cb6106de565b6040516100d891906109a4565b60405180910390f35b6100e9610702565b6040516100f691906109dd565b60405180910390f35b7f000000000000000000000000000000000000000000000000000000000000000081565b5f5f85876101319190610a23565b9050736b175474e89094c44da98b954eedeac495271d0f73ffffffffffffffffffffffffffffffffffffffff1663095ea7b37f0000000000000000000000000000000000000000000000000000000000000000896040518363ffffffff1660e01b81526004016101a2929190610a74565b6020604051808303815f875af11580156101be573d5f5f3e3d5ffd5b505050506040513d601f19601f820116820180604052508101906101e29190610ac5565b505f7f000000000000000000000000000000000000000000000000000000000000000073ffffffffffffffffffffffffffffffffffffffff1663414bf389604051806101000160405280736b175474e89094c44da98b954eedeac495271d0f73ffffffffffffffffffffffffffffffffffffffff16815260200173c02aaa39b223fe8d0a0e5c4f27ead9083c756cc273ffffffffffffffffffffffffffffffffffffffff168152602001610bb862ffffff1681526020013073ffffffffffffffffffffffffffffffffffffffff1681526020014281526020018b81526020015f81526020015f73ffffffffffffffffffffffffffffffffffffffff168152506040518263ffffffff1660e01b81526004016102fd9190610bda565b6020604051808303815f875af1158015610319573d5f5f3e3d5ffd5b505050506040513d601f19601f8201168201806040525081019061033d9190610c08565b905073c02aaa39b223fe8d0a0e5c4f27ead9083c756cc273ffffffffffffffffffffffffffffffffffffffff1663095ea7b37f0000000000000000000000000000000000000000000000000000000000000000836040518363ffffffff1660e01b81526004016103ae929190610a74565b6020604051808303815f875af11580156103ca573d5f5f3e3d5ffd5b505050506040513d601f19601f820116820180604052508101906103ee9190610ac5565b505f7f000000000000000000000000000000000000000000000000000000000000000073ffffffffffffffffffffffffffffffffffffffff1663414bf38960405180610100016040528073c02aaa39b223fe8d0a0e5c4f27ead9083c756cc273ffffffffffffffffffffffffffffffffffffffff168152602001736b175474e89094c44da98b954eedeac495271d0f73ffffffffffffffffffffffffffffffffffffffff168152602001610bb862ffffff1681526020013073ffffffffffffffffffffffffffffffffffffffff1681526020014281526020018581526020015f81526020015f73ffffffffffffffffffffffffffffffffffffffff168152506040518263ffffffff1660e01b81526004016105099190610bda565b6020604051808303815f875af1158015610525573d5f5f3e3d5ffd5b505050506040513d601f19601f820116820180604052508101906105499190610c08565b90508281101561058e576040517f08c379a000000000000000000000000000000000000000000000000000000000815260040161058590610cd9565b60405180910390fd5b8973ffffffffffffffffffffffffffffffffffffffff1663095ea7b37f0000000000000000000000000000000000000000000000000000000000000000856040518363ffffffff1660e01b81526004016105e9929190610a74565b6020604051808303815f875af1158015610605573d5f5f3e3d5ffd5b505050506040513d601f19601f820116820180604052508101906106299190610ac5565b50600193505050509695505050505050565b7f000000000000000000000000000000000000000000000000000000000000000073ffffffffffffffffffffffffffffffffffffffff166342b0b77c30736b175474e89094c44da98b954eedeac495271d0f845f6040518563ffffffff1660e01b81526004016106ae9493929190610d70565b5f604051808303815f87803b1580156106c5575f5ffd5b505af11580156106d7573d5f5f3e3d5ffd5b5050505050565b7f000000000000000000000000000000000000000000000000000000000000000081565b7f000000000000000000000000000000000000000000000000000000000000000081565b5f73ffffffffffffffffffffffffffffffffffffffff82169050919050565b5f819050919050565b5f61076861076361075e84610726565b610745565b610726565b9050919050565b5f6107798261074e565b9050919050565b5f61078a8261076f565b9050919050565b61079a81610780565b82525050565b5f6020820190506107b35f830184610791565b92915050565b5f5ffd5b5f5ffd5b5f6107cb82610726565b9050919050565b6107db816107c1565b81146107e5575f5ffd5b50565b5f813590506107f6816107d2565b92915050565b5f819050919050565b61080e816107fc565b8114610818575f5ffd5b50565b5f8135905061082981610805565b92915050565b5f5ffd5b5f5ffd5b5f5ffd5b5f5f83601f8401126108505761084f61082f565b5b8235905067ffffffffffffffff81111561086d5761086c610833565b5b60208301915083600182028301111561088957610888610837565b5b9250929050565b5f5f5f5f5f5f60a087890312156108aa576108a96107b9565b5b5f6108b789828a016107e8565b96505060206108c889828a0161081b565b95505060406108d989828a0161081b565b94505060606108ea89828a016107e8565b935050608087013567ffffffffffffffff81111561090b5761090a6107bd565b5b61091789828a0161083b565b92509250509295509295509295565b5f8115159050919050565b61093a81610926565b82525050565b5f6020820190506109535f830184610931565b92915050565b5f6020828403121561096e5761096d6107b9565b5b5f61097b8482850161081b565b91505092915050565b5f61098e8261076f565b9050919050565b61099e81610984565b82525050565b5f6020820190506109b75f830184610995565b92915050565b5f6109c78261076f565b9050919050565b6109d7816109bd565b82525050565b5f6020820190506109f05f8301846109ce565b92915050565b7f4e487b71000000000000000000000000000000000000000000000000000000005f52601160045260245ffd5b5f610a2d826107fc565b9150610a38836107fc565b9250828201905080821115610a5057610a4f6109f6565b5b92915050565b610a5f816107c1565b82525050565b610a6e816107fc565b82525050565b5f604082019050610a875f830185610a56565b610a946020830184610a65565b9392505050565b610aa481610926565b8114610aae575f5ffd5b50565b5f81519050610abf81610a9b565b92915050565b5f60208284031215610ada57610ad96107b9565b5b5f610ae784828501610ab1565b91505092915050565b610af9816107c1565b82525050565b5f62ffffff82169050919050565b610b1681610aff565b82525050565b610b25816107fc565b82525050565b610b3481610726565b82525050565b61010082015f820151610b4f5f850182610af0565b506020820151610b626020850182610af0565b506040820151610b756040850182610b0d565b506060820151610b886060850182610af0565b506080820151610b9b6080850182610b1c565b5060a0820151610bae60a0850182610b1c565b5060c0820151610bc160c0850182610b1c565b5060e0820151610bd460e0850182610b2b565b50505050565b5f61010082019050610bee5f830184610b3a565b92915050565b5f81519050610c0281610805565b92915050565b5f60208284031215610c1d57610c1c6107b9565b5b5f610c2a84828501610bf4565b91505092915050565b5f82825260208201905092915050565b7f455354524154454749412046414c4c4944413a204e6f206861792062656e65665f8201527f6963696f2c2063616e63656c616e646f2070617261206e6f207065726465722060208201527f64696e65726f2e00000000000000000000000000000000000000000000000000604082015250565b5f610cc3604783610c33565b9150610cce82610c43565b606082019050919050565b5f6020820190508181035f830152610cf081610cb7565b9050919050565b5f82825260208201905092915050565b50565b5f610d155f83610cf7565b9150610d2082610d07565b5f82019050919050565b5f819050919050565b5f61ffff82169050919050565b5f610d5a610d55610d5084610d2a565b610745565b610d33565b9050919050565b610d6a81610d40565b82525050565b5f60a082019050610d835f830187610a56565b610d906020830186610a56565b610d9d6040830185610a65565b8181036060830152610dae81610d0a565b9050610dbd6080830184610d61565b9594505050505056fea2646970667358221220ff18aacfb3eaaf8c931f47f9511886305d61d085207394f5d8a21c9202cf8f6e64736f6c63430008210033","linkReferences":{}},"methodIdentifiers":{"ADDRESSES_PROVIDER()":"0542975c","POOL()":"7535d246","executeOperation(address,uint256,uint256,address,bytes)":"1b11d0ff","router()":"f887ea40","solicitarPrestamo(uint256)":"5327c770"},"id":25}